:020000040800F2
:1000000000500020E5120008B10A0008B70A0008F5
:10001000BD0A0008C30A0008C90A00080000000061
:10002000000000000000000000000000CF0A0008EF
:10003000DB0A000800000000E70A0008F30A0008D5
:100040002D1300082D1300082D1300082D13000890
:100050002D1300082D1300082D1300082D13000880
:100060002D1300082D1300082D1300082D13000870
:100070002D1300082D1300082D1300082D13000860
:100080002D1300082D1300082D1300082D13000850
:100090002D1300082D1300082D1300082D13000840
:1000A0002D1300082D1300082D1300082D13000830
:1000B0002D1300082D1300082D1300082D13000820
:1000C0002D1300082D1300082D1300082D13000810
:1000D0002D1300082D1300082D1300082D13000800
:1000E0002D1300082D1300082D1300080000000038
:1000F0000000000000000000000000000000000000
:0C01000000000000000000005FF808F1A3
:10010C0010B5054C237833B9044B13B10448AFF345
:10011C0000800123237010BD3C0000200000000073
:10012C003C2C000808B5034B1BB103490348AFF343
:10013C00008008BD00000000400000203C2C00089E
:10014C00034613F8012B002AFBD1181A013870470B
:10015C0080B500AF00221021024801F0D1FB00BF96
:10016C0080BD00BF0008014080B500AF0122102106
:10017C00024801F0C5FB00BF80BD00BF0008014074
:10018C0080B582B000AFF91D4FF0FF330122044857
:10019C0002F076F9FB7918460837BD4680BD00BFE2
:1001AC005800002080B582B000AF0346FB71F91DEA
:1001BC004FF0FF330122034802F026F800BF083746
:1001CC00BD4680BD5800002090B595B002AF3F4AA7
:1001DC0007F1280392E8030083E8030001F0A2F87A
:1001EC0000F08AF800F000F900F0C8F838493948F6
:1001FC0000F0CAFE3849394800F0EAFE07F128023F
:10020C0007F128031146184600F05AFF07F11003B6
:10021C0000221A605A609A60DA601A61C3F81320DF
:10022C002F4A07F1100392E8030018600433198079
:10023C002C4A07F11603106818602B4A07F11A03B1
:10024C0010681860294A07F11E031068186007F13E
:10025C001003184600F0C0FF07F11003184600F019
:10026C00FBFF234BFB60234A3B4607CA83E807008E
:10027C00002341F288320221002000F0EDF8034601
:10028C0087F8473097F84730002BF1D100BF3B4639
:10029C001846FFF755FF03469AB207F10C0339468F
:1002AC0041F2EC300090002000F05AFA04463B4634
:1002BC001846FFF745FF03469C42E8D1002000F0AA
:1002CC00E1F94FF4FA7001F08FF8D1E7542C0008E3
:1002DC00750100085D010008B10100088D010008DE
:1002EC005C2C0008642C0008682C00086C2C00089E
:1002FC00C0A80104702C000880B590B000AF07F1C5
:10030C00180328220021184602F08AFC3B1D00220B
:10031C001A605A609A60DA601A610223BB61012389
:10032C00BB621023FB6202237B630023BB634FF48D
:10033C006013FB6307F11803184601F0F9FA034642
:10034C00002B01D000F082F80F237B600223BB60EE
:10035C000023FB604FF480633B6100237B613B1DFA
:10036C000221184601F066FD0346002B01D000F077
:10037C006DF800BF4037BD4680BD000080B500AFB2
:10038C00174B184A1A60164B4FF482725A60144B72
:10039C0000229A60124B0022DA60114B00221A6183
:1003AC000F4B00225A610E4B4FF400729A610C4BAA
:1003BC001022DA610A4B00221A62094B00225A629F
:1003CC00074B00229A62064B0A22DA62044801F0BB
:1003DC0097FE0346002B01D000F038F800BF80BD1B
:1003EC00580000200030014080B586B000AF07F106
:1003FC00080300221A605A609A60DA60114B9B69FC
:10040C00104A43F0040393610E4B9B6903F0040301
:10041C007B607B68002210210B4801F071FA1023DD
:10042C00BB600123FB6001233B6102237B6107F16D
:10043C0008031946044801F0DFF800BF1837BD4621
:10044C0080BD00BF001002400008014080B400AF26
:10045C0072B600BFFEE7000090B585B000AF044651
:10046C00084611461A462346FB710346BB710B46E0
:10047C00BB801346FB70FB79082B02D94FF0FF337E
:10048C00F2E0BB79012B05D0002B11DD023B022BD6
:10049C000ED811E007F10C03042219464FF47060DA
:1004AC0000F0C8FBFB68002B05D16FF00203DBE00A
:1004BC006FF00403D8E000BFFB7803F00403002BBB
:1004CC0002D06FF00503CFE0FB78002B25D0BB7971
:1004DC00012B02D0022B08D024E0FB7803F021037F
:1004EC00002B1CD16FF00503BEE0FB7803F020035A
:1004FC00002B06D097F90330002B02DB6FF00503BD
:10050C00B2E0FB7803F01003002B0AD097F903300C
:10051C00002B06DB6FF00503A6E000BF02E000BF76
:10052C0000E000BFFB79184600F0ACF8FB799B00AB
:10053C000133DB00184697F9033023F00F035AB24E
:10054C0097F9063013435BB2DBB2194600F024FB7B
:10055C00BB88002B10D1464B1B885A1C91B2444AC5
:10056C001180BB80424B1B884FF6F072934203D133
:10057C003F4B4FF440421A80FB799B000133DB0068
:10058C0003F580631A46BB881B0A9BB2DBB2194683
:10059C00104600F001FBFB799B000133DB0003F5F7
:1005AC00A0631A46BB88DBB21946104600F0F4FA79
:1005BC00FB799B000133DB0003F5807301211846A6
:1005CC0000F0EAFA00BFFB799B000133DB0003F576
:1005DC008073184600F094FA0346002BF3D1FB7994
:1005EC00012202FA03F31BB2DB431AB2214B1B8824
:1005FC001BB213401BB29AB21E4B1A80FB7803F04D
:10060C000102FB7902FA03F31AB21A4B1B881BB2D4
:10061C0013431BB29AB2174B1A80FB79012202FAD0
:10062C0003F31BB2DB431AB2134B1B881BB21340F0
:10063C001BB29AB2104B1A80FB79104A002122F897
:10064C001310FB790E4A0021D15400BFFB799B009B
:10065C000133DB0003F54073184600F051FA0346F2
:10066C00002BF3D097F9073018461437BD4690BDD0
:10067C0000000020B0000020B2000020B4000020D8
:10068C00C400002080B582B000AF0346FB71FB793B
:10069C00082B02D94FF0FF3355E0FB799B00013357
:1006AC00DB0003F580731021184600F075FA00BFCB
:1006BC00FB799B000133DB0003F58073184600F0D7
:1006CC001FFA0346002BF3D1FB799B000133DB00AF
:1006DC0003F500731F21184600F05EFAFB79012226
:1006EC0002FA03F31BB2DB431AB2194B1B881BB281
:1006FC0013401BB29AB2164B1A80FB79012202FAF4
:10070C0003F31BB2DB431AB2124B1B881BB2134010
:10071C001BB29AB20F4B1A80FB790F4A002122F8B8
:10072C001310FB790D4A0021D15400BFFB799B00BB
:10073C000133DB0003F54073184600F0E1F9034682
:10074C00002BF3D1012318460837BD4680BD00BFEE
:10075C00B0000020B2000020B4000020C400002033
:10076C0080B586B000AFB9607B600346FB7313465F
:10077C00BB810023FB750023BB82FB7B082B02D9BA
:10078C004FF0FF331BE1FB7B9B000133DB00184672
:10079C0000F0B6F9034603F00F03023B022B02D91B
:1007AC006FF004030BE100BFBB89002B02D16FF08B
:1007BC000D0304E17B681B783B613B691B027A6883
:1007CC000132127813443B613B691B027A68023296
:1007DC00127813443B613B691B027A68033212782E
:1007EC0013443B613B69002B0ED1FB7B9B00013317
:1007FC00DB00184600F084F9034603F00403042BD5
:10080C0002D06FF00B03DAE03B8C002B0ED1FB7B9C
:10081C009B000133DB00184600F072F9034603F02D
:10082C000403042B02D06FF00A03C8E0FB7B9B008F
:10083C000133DB0003F54073184600F061F9034601
:10084C00FB75FB7D422B08D0FB7D222B05D0FB7D5D
:10085C00322B02D06FF00603B1E0FB7B9B0001331F
:10086C00DB0003F5406304227968184600F042FA75
:10087C00FB7B9B000133DB0003F580531A463B8C5A
:10088C001B0A9BB2DBB21946104600F085F9FB7BC4
:10089C009B000133DB0003F588531A463B8CDBB21B
:1008AC001946104600F078F9FB7B9B000133DB0006
:1008BC0003F5F853184600F023F903469BB29B024C
:1008CC00BB82BA89BB8A9A4201D9BB8ABB81FB7BAA
:1008DC00184600F06FFA0346BB82FB7B9B0001338A
:1008EC00DB0003F54073184600F00AF90346002BB1
:1008FC0002D16FF0030362E0334B1B881A46FB7B7B
:10090C0042FA03F303F00103002B05D0BA89BB8A2A
:10091C009A4201D9002352E0BA89BB8A9A4200D983
:10092C00D5E700BFBA89FB7BB968184600F08DFA91
:10093C00FB7B9B000133DB0003F580732021184601
:10094C0000F02AF900BFFB7B9B000133DB0003F5B1
:10095C008073184600F0D4F80346002BF3D1FB7BD0
:10096C009B000133DB0003F50073184600F0C8F858
:10097C00034603F01F03FB75FB7D03F01003002BF4
:10098C000CD0FB7B9B000133DB0003F500731021C3
:10099C00184600F001F900BFBB8910E0FB7D03F0A5
:1009AC000803002BDBD0FB7B9B000133DB0003F542
:1009BC0000730821184600F0EFF86FF00C0318468E
:1009CC001837BD4680BD00BFB000002080B483B096
:1009DC0000AF0E4B9B690D4A43F0010393610B4B27
:1009EC009B6903F001037B607B68084BDB69074A5A
:1009FC0043F08053D361054BDB6903F080533B60BC
:100A0C003B6800BF0C37BD4680BC704700100240ED
:100A1C0080B588B000AF786007F1100300221A602F
:100A2C005A609A60DA607B681B681B4A93422FD12C
:100A3C001A4B9B69194A43F480539361174B9B697A
:100A4C0003F48053FB60FB68144B9B69134A43F01F
:100A5C0004039361114B9B6903F00403BB60BB68F7
:100A6C00A0233B6102237B610323FB6107F110038D
:100A7C0019460B4800F0C0FD40233B6100237B610D
:100A8C000023BB6107F110031946054800F0B4FDC3
:100A9C0000BF2037BD4680BD003001400010024031
:100AAC000008014080B400AFFEE780B400AFFEE761
:100ABC0080B400AFFEE780B400AFFEE780B400AFB7
:100ACC00FEE780B400AF00BFBD4680BC704780B469
:100ADC0000AF00BFBD4680BC704780B400AF00BF04
:100AEC00BD4680BC704780B500AF00F061FC00BF14
:100AFC0080BD80B400AF00BFBD4680BC7047000015
:100B0C0080B584B000AF7860224BDB689847214BEE
:100B1C005B6998471F4B5B6A002B03D01D4B9B6A8C
:100B2C00002B14D11B4B1B6A7A68120CD2B21046E4
:100B3C009847184B1B6A7A68120AD2B2104698472B
:100B4C00144B1B6A7A68D2B21046984711E07B6846
:100B5C001B0CDBB23B737B681B0ADBB27B737B68C1
:100B6C00DBB2BB730B4B9B6A07F10C0203211046E3
:100B7C009847084BDB6998470346FB73054B9B6909
:100B8C009847044B1B699847FB7B18461037BD46AA
:100B9C0080BD00BF0800002080B584B000AF786035
:100BAC000B46FB70224BDB689847214B5B699847DF
:100BBC007B6843F004037B601D4B9B6A002B19D1AF
:100BCC001B4B1B6A7A68120CD2B210469847184B12
:100BDC001B6A7A68120AD2B210469847144B1B6AE9
:100BEC007A68D2B210469847114B1B6AFA781046B5
:100BFC00984713E07B681B0CDBB23B737B681B0ACA
:100C0C00DBB27B737B68DBB2BB73FB78FB73084B8B
:100C1C009B6A07F10C02042110469847044B9B6910
:100C2C009847034B1B69984700BF1037BD4680BDE2
:100C3C000800002090B587B000AFF860B96013468B
:100C4C00FB802B4BDB689847294B5B699847284BFB
:100C5C005B6A002B03D0264B9B6A002B26D1244BBE
:100C6C001B6AFA68120CD2B210469847204B1B6ACA
:100C7C00FA68120AD2B2104698471D4B1B6AFA68E2
:100C8C00D2B2104698470023FB820AE0184BDB696E
:100C9C00FA8AB9688C18984703462370FB8A01338B
:100CAC00FB82FA8AFB889A42F0D317E0FB681B0C94
:100CBC00DBB23B74FB681B0ADBB27B74FB68DBB2F8
:100CCC00BB740B4B9B6A07F110020321104698472B
:100CDC00074B5B6AFA881146B8689847044B9B69C6
:100CEC009847034B1B69984700BF1C37BD4690BD06
:100CFC000800002080B586B000AFF860B9601346DC
:100D0C00FB802B4BDB689847294B5B699847FB684A
:100D1C0043F00403FB60264B9B6A002B26D1244B2B
:100D2C001B6AFA68120CD2B210469847204B1B6A09
:100D3C00FA68120AD2B2104698471D4B1B6AFA6821
:100D4C00D2B2104698470023FB820AE0184B1B6A6C
:100D5C00FA8AB9680A44127810469847FB8A01331C
:100D6C00FB82FA8AFB889A42F0D317E0FB681B0CD3
:100D7C00DBB23B74FB681B0ADBB27B74FB68DBB237
:100D8C00BB740B4B9B6A07F110020321104698476A
:100D9C00074B9B6AFA881146B8689847044B9B69C5
:100DAC009847034B1B69984700BF1837BD4680BD59
:100DBC000800002090B585B000AF0346FB710023FE
:100DCC00FB810023BB81FB799B000133DB0003F526
:100DDC0000531846FFF794FE0346BB81BB891B02E8
:100DEC009CB2FB799B000133DB0003F504531846DE
:100DFC00FFF786FE03469BB22344BB81BB89002BC5
:100E0C001AD0FB799B000133DB0003F50053184625
:100E1C00FFF776FE0346FB81FB891B029CB2FB7934
:100E2C009B000133DB0003F504531846FFF768FE03
:100E3C0003469BB22344FB81FA89BB899A42C2D1F7
:100E4C00FB8918461437BD4690BD90B585B000AFF0
:100E5C0003463960FB711346BB800023FB810023E2
:100E6C00BB60BB88002B48D0FB799B000133DB00B7
:100E7C0003F510531846FFF743FE03469BB21B02C3
:100E8C009CB2FB799B000133DB0003F5145318462D
:100E9C00FFF736FE03469BB22344FB81FB891B0202
:100EAC00FA7992000232D2001344BB60BB881A4616
:100EBC003968B868FFF71EFFFA89BB881344FB81B9
:100ECC00FB799B000133DB0003F510531A46FB89B9
:100EDC001B0A9BB2DBB219461046FFF75DFEFB798D
:100EEC009B000133DB0003F514531A46FB89DBB27C
:100EFC0019461046FFF750FE00E000BF1437BD4600
:100F0C0090BD80B400AF00BFBD4680BC704780B4BC
:100F1C0000AF00BFBD4680BC704780B400AF00BFBF
:100F2C00BD4680BC704780B400AF00BFBD4680BCDE
:100F3C00704780B483B000AF78607B681B78DBB2FD
:100F4C0018460C37BD4680BC704780B483B000AFE8
:100F5C0078600B46FB707B68FA781A7000BF0C3710
:100F6C00BD4680BC704780B400AF00231846BD4618
:100F7C0080BC704780B483B000AF0346FB7100BFE8
:100F8C000C37BD4680BC704780B483B000AF78602E
:100F9C0039607B68002B02D03B68002B06D1094BD3
:100FAC00094A5A61074B094A9A6106E0054A7B686F
:100FBC005361044A3B68936100BF00BF0C37BD46C8
:100FCC0080BC704708000020270F0008330F000872
:100FDC0080B483B000AF7860396000BF0F4B1B88C2
:100FEC0003F40073002BF9D07B68002B02D03B6814
:100FFC00002B06D1094B0A4ADA61084B094A1A62DE
:10100C0006E0064A7B68D361044A3B68136200BF62
:10101C0000BF0C37BD4680BC704700BF08000020E5
:10102C00730F0008810F000880B586B000AF3B1D20
:10103C00062219464FF41060FFF7FCFD07F114036C
:10104C00042219464FF48070FFF7F4FD07F11003EA
:10105C00042219464FF4A060FFF7ECFD07F10C03D6
:10106C00042219464FF47060FFF7E4FD8021002044
:10107C00FFF792FD0020FFF743FD3B1D06221946AA
:10108C004FF41060FFF736FE07F1140304221946E3
:10109C004FF48070FFF72EFE07F11003042219465F
:1010AC004FF4A060FFF726FE07F10C03042219464B
:1010BC004FF47060FFF71EFE00BF1837BD4680BDB1
:1010CC0080B584B000AF786039600023BB73FFF744
:1010DC00ABFF7B68002B3BD00023BB730023FB735F
:1010EC0015E097F90F307A6813441A78BB7B1344D8
:1010FC00DBB2BB7397F90E30102B02DD4FF0FF33D0
:10110C0066E097F90F30DBB20133DBB2FB7397F972
:10111C000F30072BE5DD0023FB7315E097F90F303B
:10112C009B000133DB0003F5F853184697F90F3099
:10113C007A6813441B781946FFF72EFD97F90F3088
:10114C00DBB20133DBB2FB7397F90F30072BE5DD14
:10115C003B68002B3BD00023BB730023FB7315E0D3
:10116C0097F90F303A6813441A78BB7B1344DBB2FF
:10117C00BB7397F90E30102B02DD4FF0FF3327E0D5
:10118C0097F90F30DBB20133DBB2FB7397F90F30F9
:10119C00072BE5DD0023FB7315E097F90F309B005F
:1011AC000133DB0003F5F053184697F90F303A681A
:1011BC0013441B781946FFF7EFFC97F90F30DBB29D
:1011CC000133DBB2FB7397F90F30072BE5DD0023FE
:1011DC0018461037BD4680BD80B582B000AF786030
:1011EC007B68062219464FF41060FFF783FD7B687D
:1011FC000E33042219464FF48070FFF77BFD7B6899
:10120C000A33042219464FF4A060FFF773FD7B6884
:10121C000633042219464FF47060FFF76BFD7B68B0
:10122C009A7C0B4B1A707B68DA7C094B5A707B6882
:10123C001A7D074B9A707B685A7D054BDA707B6878
:10124C009A7D044B1A7000BF0837BD4680BD00BFA5
:10125C00CC000020D000002080B582B000AF7860B8
:10126C007B68062219464FF41060FFF7E3FC7B689D
:10127C000E33042219464FF48070FFF7DBFC7B68B9
:10128C000A33042219464FF4A060FFF7D3FC7B68A5
:10129C000633042219464FF47060FFF7CBFC0C4B5D
:1012AC001A787B689A740A4B5A787B68DA74084B04
:1012BC009A787B681A75064BDA787B685A75054BF9
:1012CC001A787B689A7500BF0837BD4680BD00BF91
:1012DC00CC000020D00000200C480D490D4A002302
:1012EC0002E0D458C4500433C4188C42F9D30A4ACF
:1012FC000A4C002301E013600432A242FBD3FFF737
:10130C00F8FB01F069FCFEF75FFF7047000000205E
:10131C003C000020A42C00083C000020D800002039
:10132C00FEE7000080B500AF084B1B68074A43F08E
:10133C0010031360032000F02BF90F2000F008F8C5
:10134C00FFF744FB0023184680BD00BF002002407D
:10135C0080B582B000AF7860124B1A68124B1B78C4
:10136C0019464FF47A73B3FBF1F3B2FBF3F318465F
:10137C0000F035F90346002B01D001230EE07B6809
:10138C000F2B0AD8002279684FF0FF3000F00BF9D0
:10139C00064A7B681360002300E0012318460837D7
:1013AC00BD4680BD04000020380000203400002021
:1013BC0080B400AF054B1B781A46054B1B681344D1
:1013CC00034A136000BFBD4680BC70473800002044
:1013DC00D400002080B400AF024B1B681846BD46F9
:1013EC0080BC7047D400002080B584B000AF78601A
:1013FC00FFF7F0FFB8607B68FB60FB68B3F1FF3F61
:10140C0005D00A4B1B781A46FB681344FB6000BFDF
:10141C00FFF7E0FF0246BB68D31AFA689A42F7D886
:10142C0000BF00BF1037BD4680BD00BF3800002094
:10143C0080B485B000AF78607B6803F00703FB6075
:10144C000C4BDB68BB60BA684FF6FF031340BB6004
:10145C00FB681A02BB68134343F0BF6343F40033C9
:10146C00BB60044ABB68D36000BF1437BD4680BC68
:10147C00704700BF00ED00E080B400AF044BDB68A8
:10148C001B0A03F007031846BD4680BC704700BF1B
:10149C0000ED00E080B483B000AF03463960FB710F
:1014AC0097F90730002B0ADB3B68DAB20C4997F945
:1014BC0007301201D2B20B4483F800230AE03B68D8
:1014CC00DAB20849FB7903F00F03043B1201D2B2E4
:1014DC000B441A7600BF0C37BD4680BC704700BF6A
:1014EC0000E100E000ED00E080B489B000AFF860EE
:1014FC00B9607A60FB6803F00703FB61FB69C3F119
:10150C000703042B28BF0423BB61FB690433062BA0
:10151C0002D9FB69033B00E000237B614FF0FF32F3
:10152C00BB6902FA03F3DA43BB681A407B699A4041
:10153C004FF0FF317B6901FA03F3D9437B680B4011
:10154C00134318462437BD4680BC704780B582B023
:10155C0000AF78607B68013BB3F1807F01D301233E
:10156C000FE00A4A7B68013B53600F214FF0FF30BC
:10157C00FFF790FF054B00229A60044B07221A607C
:10158C00002318460837BD4680BD00BF10E000E0C0
:10159C0080B582B000AF78607868FFF749FF00BF74
:1015AC000837BD4680BD80B586B000AF0346B96034
:1015BC007A60FB7300237B61FFF75EFF78617A68CA
:1015CC00B9687869FFF790FF024697F90F3011461A
:1015DC001846FFF75FFF00BF1837BD4680BD80B5CA
:1015EC0082B000AF78607868FFF7B0FF034618460A
:1015FC000837BD4680BD000080B48BB000AF78606A
:10160C00396000237B6200233B6269E101227B6A23
:10161C0002FA03F3FB613B681B68FA691340BB6178
:10162C00BA69FB699A4240F058813B685B689A4AF8
:10163C0093425ED0984A934275D8984A934258D0B8
:10164C00964A93426FD8964A934252D0944A934208
:10165C0069D8944A93424CD0924A934263D8924AA6
:10166C00934246D0904A93425DD8122B2AD8122B23
:10167C0059D801A252F823F0FF160008D916000819
:10168C00EB1600082D170008331700083317000855
:10169C0033170008331700083317000833170008F6
:1016AC0033170008331700083317000833170008E6
:1016BC00331700083317000833170008E116000829
:1016CC00F5160008794A934213D02CE03B68DB688E
:1016DC003B6229E03B68DB6804333B6224E03B68F7
:1016EC00DB6808333B621FE03B68DB680C333B6212
:1016FC001AE03B689B68002B02D104233B6213E089
:10170C003B689B68012B05D108233B627B68FA6917
:10171C001A6109E008233B627B68FA695A6103E0AD
:10172C0000233B6200E000BFBB69FF2B01D87B6844
:10173C0001E07B6804337B61BB69FF2B02D87B6AB9
:10174C009B0002E07B6A083B9B003B617B691A684B
:10175C000F213B6901FA03F3DB431A40396A3B69F9
:10176C0001FA03F31A437B691A603B685B6803F068
:10177C008053002B00F0B1804D4B9B694C4A43F0D9
:10178C00010393614A4B9B6903F00103BB60BB6887
:10179C00484A7B6A9B08023352F82330FB607B6A11
:1017AC0003F003039B000F2202FA03F3DB43FA68F6
:1017BC001340FB607B68404A934213D07B683F4ADE
:1017CC0093420DD07B683E4A934207D07B683D4ADA
:1017DC00934201D1032306E0042304E0022302E038
:1017EC00012300E000237A6A02F003029200934086
:1017FC00FA681343FB602F497B6A9B080233FA6833
:10180C0041F823203B685B6803F48033002B06D03F
:10181C002D4B1A682C49BB6913430B6006E02A4B0D
:10182C001A68BB69DB43284913400B603B685B6853
:10183C0003F40033002B06D0234B5A682249BB69B2
:10184C0013434B6006E0204B5A68BB69DB431E49CF
:10185C0013404B603B685B6803F48013002B06D08D
:10186C00194B9A681849BB6913438B6006E0164BF9
:10187C009A68BB69DB43144913408B603B685B6817
:10188C0003F40013002B21D00F4BDA680E49BB690F
:10189C001343CB6021E000BF000032100000311078
:1018AC000000221000002110000012100000111086
:1018BC00001002400000014000080140000C0140F3
:1018CC000010014000140140000401400B4BDA6889
:1018DC00BB69DB4309491340CB607B6A01337B62F4
:1018EC003B681A687B6A22FA03F3002B7FF48EAEF6
:1018FC0000BF00BF2C37BD4680BC704700040140C0
:10190C0080B483B000AF78600B467B8013467B704D
:10191C007B78002B03D07A887B681A6103E07B8884
:10192C001A047B681A6100BF0C37BD4680BC704737
:10193C0080B586B000AF78607B68002B01D10123A5
:10194C0072E27B681B6803F00103002B00F08780B8
:10195C00924B5B6803F00C03042B0CD08F4B5B6831
:10196C0003F00C03082B12D18C4B5B6803F480330F
:10197C00B3F5803F0BD1894B1B6803F40033002B6C
:10198C006CD07B685B68002B68D101234CE27B68D0
:10199C005B68B3F5803F06D1804B1B687F4A43F4EC
:1019AC00803313602EE07B685B68002B0CD17B4B83
:1019BC001B687A4A23F480331360784B1B68774A90
:1019CC0023F4802313601DE07B685B68B3F5A02FC4
:1019DC000CD1724B1B68714A43F4802313606F4B1C
:1019EC001B686E4A43F4803313600BE06B4B1B682F
:1019FC006A4A23F480331360684B1B68674A23F4EC
:101A0C00802313607B685B68002B13D0FFF7E2FC2C
:101A1C00386108E0FFF7DEFC02463B69D31A642B01
:101A2C0001D9032300E25D4B1B6803F40033002B48
:101A3C00F0D014E0FFF7CEFC386108E0FFF7CAFCE9
:101A4C0002463B69D31A642B01D90323ECE1534BB7
:101A5C001B6803F40033002BF0D100E000BF7B685F
:101A6C001B6803F00203002B63D04C4B5B6803F044
:101A7C000C03002B0BD0494B5B6803F00C03082BB9
:101A8C001CD1464B5B6803F48033002B16D1434BBF
:101A9C001B6803F00203002B05D07B681B69012B2C
:101AAC0001D00123C0E13D4B1B6823F0F8027B6899
:101ABC005B69DB00394913430B603AE07B681B69B7
:101ACC00002B20D0364B01221A60FFF783FC3861C3
:101ADC0008E0FFF77FFC02463B69D31A022B01D9C1
:101AEC000323A1E12D4B1B6803F00203002BF0D064
:101AFC002A4B1B6823F0F8027B685B69DB002749E3
:101B0C0013430B6015E0264B00221A60FFF762FCB2
:101B1C00386108E0FFF75EFC02463B69D31A022BE2
:101B2C0001D9032380E11D4B1B6803F00203002B3A
:101B3C00F0D17B681B6803F00803002B3AD07B685C
:101B4C009B69002B19D0174B01221A60FFF742FC3E
:101B5C00386108E0FFF73EFC02463B69D31A022BC2
:101B6C0001D9032360E10D4B5B6A03F00203002BE8
:101B7C00F0D0012000F0A6FA1CE00A4B00221A60FB
:101B8C00FFF728FC38610FE0FFF724FC02463B69A5
:101B9C00D31A022B08D9032346E100BF00100240E0
:101BAC000000424280044242924B5B6A03F0020303
:101BBC00002BE9D17B681B6803F00403002B00F0B9
:101BCC00A6800023FB758B4BDB6903F08053002B45
:101BDC000DD1884BDB69874A43F08053D361854B29
:101BEC00DB6903F08053BB60BB680123FB75824B40
:101BFC001B6803F48073002B18D17F4B1B687E4A43
:101C0C0043F480731360FFF7E5FB386108E0FFF7DE
:101C1C00E1FB02463B69D31A642B01D9032303E190
:101C2C00754B1B6803F48073002BF0D07B68DB686A
:101C3C00012B06D16F4B1B6A6E4A43F001031362F2
:101C4C002DE07B68DB68002B0CD16A4B1B6A694A60
:101C5C0023F001031362674B1B6A664A23F00403EB
:101C6C0013621CE07B68DB68052B0CD1614B1B6A93
:101C7C00604A43F0040313625E4B1B6A5D4A43F0F7
:101C8C00010313620BE05B4B1B6A5A4A23F00103FE
:101C9C001362584B1B6A574A23F0040313627B6888
:101CAC00DB68002B15D0FFF795FB38610AE0FFF7D6
:101CBC0091FB02463B69D31A41F28832934201D917
:101CCC000323B1E04B4B1B6A03F00203002BEED055
:101CDC0014E0FFF77FFB38610AE0FFF77BFB02465D
:101CEC003B69D31A41F28832934201D903239BE01A
:101CFC00404B1B6A03F00203002BEED1FB7D012B42
:101D0C0005D13C4BDB693B4A23F08053D3617B68A4
:101D1C00DB69002B00F08780364B5B6803F00C030B
:101D2C00082B61D07B68DB69022B46D1334B002238
:101D3C001A60FFF74FFB386108E0FFF74BFB0246D8
:101D4C003B69D31A022B01D903236DE0294B1B6885
:101D5C0003F00073002BF0D17B681B6AB3F5803F56
:101D6C0008D1244B5B6823F400327B689B682149C3
:101D7C0013434B601F4B5B6823F474127B68196A26
:101D8C007B685B6A0B431B4913434B601B4B012263
:101D9C001A60FFF71FFB386108E0FFF71BFB0246D8
:101DAC003B69D31A022B01D903233DE0114B1B686D
:101DBC0003F00073002BF0D035E0104B00221A60BA
:101DCC00FFF708FB386108E0FFF704FB02463B69AC
:101DDC00D31A022B01D9032326E0064B1B6803F010
:101DEC000073002BF0D11EE07B68DB69012B07D15F
:101DFC00012319E0001002400070004060004242D4
:101E0C000B4B5B68FB60FB6803F480327B681B6ADE
:101E1C009A4206D1FB6803F470127B685B6A9A42A3
:101E2C0001D0012300E0002318461837BD4680BDC1
:101E3C000010024080B584B000AF786039607B68D8
:101E4C00002B01D10123D0E06A4B1B6803F0070380
:101E5C003A689A4210D9674B1B6823F00702654910
:101E6C003B6813430B60634B1B6803F007033A6832
:101E7C009A4201D00123B8E07B681B6803F002038F
:101E8C00002B20D07B681B6803F00403002B05D0CB
:101E9C00594B5B68584A43F4E06353607B681B689A
:101EAC0003F00803002B05D0534B5B68524A43F4F4
:101EBC0060535360504B5B6823F0F0027B689B6867
:101ECC004D4913434B607B681B6803F00103002BE7
:101EDC0040D07B685B68012B07D1474B1B6803F430
:101EEC000033002B15D101237FE07B685B68022B4C
:101EFC0007D1414B1B6803F00073002B09D1012360
:101F0C0073E03D4B1B6803F00203002B01D101234E
:101F1C006BE0394B5B6823F003027B685B683649E6
:101F2C0013434B60FFF756FAF8600AE0FFF752FADA
:101F3C000246FB68D31A41F28832934201D903233B
:101F4C0053E02D4B5B6803F00C027B685B689B00D5
:101F5C009A42EBD1274B1B6803F007033A689A426D
:101F6C0010D2244B1B6823F0070222493B68134311
:101F7C000B60204B1B6803F007033A689A4201D0B0
:101F8C00012332E07B681B6803F00403002B08D0AC
:101F9C00194B5B6823F4E0627B68DB6816491343DA
:101FAC004B607B681B6803F00803002B09D0124BB5
:101FBC005B6823F460527B681B69DB000E4913439A
:101FCC004B6000F021F802460B4B5B681B0903F0D9
:101FDC000F030A49CB5C22FA03F3094A1360094B3D
:101FEC001B681846FFF7B4F9002318461037BD4696
:101FFC0080BD00BF00200240001002408C2C000865
:10200C00040000203400002090B48AB000AF294BAB
:10201C003C1D0FCB84E80F0040F201233B800023D2
:10202C00FB610023BB6100237B6200237B610023E7
:10203C003B62214B5B68FB61FB6903F00C03042BD7
:10204C0002D0082B03D02BE01C4B3B622BE0FB692E
:10205C009B0C03F00F0328333B4413F8243C7B61A7
:10206C00FB6903F48033002B12D0134B5B685B0CC1
:10207C0003F0010328333B4413F8283CBB617B6914
:10208C000E4A03FB02F2BB69B2FBF3F37B6204E082
:10209C007B690B4A02FB03F37B627B6A3B6202E0C7
:1020AC00064B3B6200BF3B6A18462837BD4690BCC6
:1020BC00704700BF7C2C00080010024000127A0010
:1020CC0000093D0080B485B000AF78600A4B1B68F6
:1020DC000A4AA2FB03235B0A7A6802FB03F3FB6048
:1020EC0000BFFB685A1EFA60002BF9D100BF00BF7D
:1020FC001437BD4680BC704704000020D34D6210DD
:10210C0080B582B000AF78607B68002B01D10123D1
:10211C0076E07B685B6A002B08D17B685B68B3F563
:10212C00827F09D07B680022DA6105E07B6800229F
:10213C001A617B6800225A617B6800229A627B6874
:10214C0093F85130DBB2002B06D17B68002283F868
:10215C0050207868FEF75CFC7B68022283F85120E3
:10216C007B681B681A687B681B6822F040021A6047
:10217C007B685B6803F482727B689B6803F404439E
:10218C001A437B68DB6803F400631A437B681B69A2
:10219C0003F002031A437B685B6903F001031A43E3
:1021AC007B689B6903F400731A437B68DB6903F05B
:1021BC0038031A437B681B6A03F0800342EA03016D
:1021CC007B689B6A03F400527B681B680A431A60A5
:1021DC007B689B691A0C7B681B6802F004025A60CE
:1021EC007B681B68DA697B681B6822F40062DA6121
:1021FC007B6800225A657B68012283F851200023FA
:10220C0018460837BD4680BD80B588B000AFF86071
:10221C00B9603B601346FB800023FB77FB6893F8A7
:10222C005030012B01D1022326E1FB68012283F8F7
:10223C005020FFF7CFF8B861FB88FB82FB6893F85E
:10224C005130DBB2012B02D00223FB770BE1BB68D0
:10225C00002B02D0FB88002B02D10123FB7702E17B
:10226C00FB68032283F85120FB6800225A65FB6847
:10227C00BA681A63FB68FA889A86FB68FA88DA8669
:10228C00FB6800229A63FB6800229A87FB68002295
:10229C00DA87FB6800225A64FB6800221A64FB6828
:1022AC009B68B3F5004F0FD1FB681B681A68FB687D
:1022BC001B6822F040021A60FB681B681A68FB68F6
:1022CC001B6842F480421A60FB681B681B6803F0B1
:1022DC004003402B07D0FB681B681A68FB681B681F
:1022EC0042F040021A60FB68DB68B3F5006F4BD11B
:1022FC00FB685B68002B02D0FB8A012B3ED1FB688C
:10230C001B6B1A88FB681B68DA60FB681B6B9A1CDA
:10231C00FB681A63FB68DB8E9BB2013B9AB2FB68CD
:10232C00DA862BE0FB681B689B6803F00203022B28
:10233C0012D1FB681B6B1A88FB681B68DA60FB68A0
:10234C001B6B9A1CFB681A63FB68DB8E9BB2013B10
:10235C009AB2FB68DA8611E0FFF73CF80246BB69DB
:10236C00D31A3A689A4203D83B68B3F1FF3F02D1C3
:10237C003B68002B02D10323FB7774E0FB68DB8EF8
:10238C009BB2002BCED14CE0FB685B68002B02D0DB
:10239C00FB8A012B40D1FB681A6BFB681B680C3362
:1023AC0012781A70FB681B6B5A1CFB681A63FB686B
:1023BC00DB8E9BB2013B9AB2FB68DA862CE0FB68A1
:1023CC001B689B6803F00203022B13D1FB681A6B8A
:1023DC00FB681B680C3312781A70FB681B6B5A1C59
:1023EC00FB681A63FB68DB8E9BB2013B9AB2FB68FD
:1023FC00DA8611E0FEF7EEFF0246BB69D31A3A68A3
:10240C009A4203D83B68B3F1FF3F02D13B68002BE3
:10241C0002D10323FB7726E0FB68DB8E9BB2002BFB
:10242C00CDD1BA693968F86800F0B8FB0346002BC7
:10243C0002D0FB6820225A65FB689B68002B0AD1EE
:10244C0000233B61FB681B68DB683B61FB681B6816
:10245C009B683B613B69FB685B6D002B02D00123E1
:10246C00FB7700E000BFFB68012283F85120FB687A
:10247C00002283F85020FB7F18462037BD4680BDD4
:10248C0080B588B002AFF860B9603B601346FB8042
:10249C000023FB75FB685B68B3F5827F12D1FB6888
:1024AC009B68002B0ED1FB68042283F85120FA881C
:1024BC003B6800931346BA68B968F86800F0F1F805
:1024CC000346EAE0FB6893F85030012B01D102235C
:1024DC00E3E0FB68012283F85020FEF77BFF3861B4
:1024EC00FB6893F85130DBB2012B02D00223FB7551
:1024FC00CAE0BB68002B02D0FB88002B02D1012361
:10250C00FB75C1E0FB68042283F85120FB680022B4
:10251C005A65FB68BA689A63FB68FA889A87FB6805
:10252C00FA88DA87FB6800221A63FB6800229A8615
:10253C00FB680022DA86FB6800221A64FB68002222
:10254C005A64FB689B68B3F5004F0FD1FB681B689E
:10255C001A68FB681B6822F040021A60FB681B6853
:10256C001A68FB681B6822F480421A60FB681B68BF
:10257C001B6803F04003402B07D0FB681B681A68EC
:10258C00FB681B6842F040021A60FB68DB68002B9A
:10259C0062D12EE0FB681B689B6803F00103012BE2
:1025AC0015D1FB681B6803F10C02FB689B6B12785E
:1025BC00D2B21A70FB689B6B5A1CFB689A63FB685F
:1025CC00DB8F9BB2013B9AB2FB68DA8711E0FEF716
:1025DC0001FF02463B69D31A3A689A4203D83B681A
:1025EC00B3F1FF3F02D13B68002B02D10323FB75F3
:1025FC004AE0FB68DB8F9BB2002BCBD131E0FB6850
:10260C001B689B6803F00103012B13D1FB681B684B
:10261C00DA68FB689B6B92B21A80FB689B6B9A1C06
:10262C00FB689A63FB68DB8F9BB2013B9AB2FB6839
:10263C00DA8711E0FEF7CEFE02463B69D31A3A6800
:10264C009A4203D83B68B3F1FF3F02D13B68002BA1
:10265C0002D10323FB7517E0FB68DB8F9BB2002BC9
:10266C00CDD13A693968F86800F046FA0346002B78
:10267C0002D0FB6820225A65FB685B6D002B02D0F0
:10268C000123FB7500E000BFFB68012283F8512099
:10269C00FB68002283F85020FB7D18461837BD4696
:1026AC0080BD80B58CB000AFF860B9607A607B807B
:1026BC000123FB62002387F82B30FB6893F8503022
:1026CC00012B01D102238AE1FB68012283F85020FF
:1026DC00FEF780FE7862FB6893F8513087F8233060
:1026EC00FB685B68FB617B887B8397F82330012B4D
:1026FC000FD0FB69B3F5827F07D1FB689B68002B79
:10270C0003D197F82330042B03D0022387F82B3006
:10271C005BE1BB68002B05D07B68002B02D07B886B
:10272C00002B03D1012387F82B304EE1FB6893F883
:10273C005130DBB2042B03D0FB68052283F8512007
:10274C00FB6800225A65FB687A689A63FB687A8892
:10275C00DA87FB687A889A87FB68BA681A63FB6821
:10276C007A88DA86FB687A889A86FB6800221A6473
:10277C00FB6800225A64FB681B681B6803F040036B
:10278C00402B07D0FB681B681A68FB681B6842F07B
:10279C0040021A60FB68DB68B3F5006F78D1FB6808
:1027AC005B68002B02D07B8B012B66D1FB681B6B0B
:1027BC001A88FB681B68DA60FB681B6B9A1CFB6849
:1027CC001A63FB68DB8E9BB2013B9AB2FB68DA861C
:1027DC0053E0FB681B689B6803F00203022B1BD1C0
:1027EC00FB68DB8E9BB2002B16D0FB6A012B13D13E
:1027FC00FB681B6B1A88FB681B68DA60FB681B6B39
:10280C009A1CFB681A63FB68DB8E9BB2013B9AB285
:10281C00FB68DA860023FB62FB681B689B6803F08D
:10282C000103012B19D1FB68DB8F9BB2002B14D059
:10283C00FB681B68DA68FB689B6B92B21A80FB68BA
:10284C009B6B9A1CFB689A63FB68DB8F9BB2013B0A
:10285C009AB2FB68DA870123FB62FEF7BBFD0246E6
:10286C007B6AD31ABA6B9A4207D8BB6BB3F1FF3FA2
:10287C0003D0032387F82B30A7E0FB68DB8E9BB2D9
:10288C00002BA6D1FB68DB8F9BB2002BA1D17CE087
:10289C00FB685B68002B02D07B8B012B6BD1FB6838
:1028AC001A6BFB681B680C3312781A70FB681B6B75
:1028BC005A1CFB681A63FB68DB8E9BB2013B9AB215
:1028CC00FB68DA8657E0FB681B689B6803F0020321
:1028DC00022B1CD1FB68DB8E9BB2002B17D0FB6A42
:1028EC00012B14D1FB681A6BFB681B680C33127834
:1028FC001A70FB681B6B5A1CFB681A63FB68DB8E37
:10290C009BB2013B9AB2FB68DA860023FB62FB6840
:10291C001B689B6803F00103012B19D1FB68DB8F4B
:10292C009BB2002B14D0FB681B68DA68FB689B6BAE
:10293C00D2B21A70FB689B6B5A1CFB689A63FB68DB
:10294C00DB8F9BB2013B9AB2FB68DA870123FB62F7
:10295C00FEF740FD02467B6AD31ABA6B9A4203D843
:10296C00BB6BB3F1FF3F02D1BB6B002B03D1032335
:10297C0087F82B3029E0FB68DB8E9BB2002BA2D1B1
:10298C00FB68DB8F9BB2002B9DD17A6AB96BF86820
:10299C0000F004F90346002B06D0012387F82B30F6
:1029AC00FB6820225A6510E0FB689B68002B0BD15A
:1029BC0000237B61FB681B68DB687B61FB681B6821
:1029CC009B687B617B6900E000BFFB68012283F898
:1029DC005120FB68002283F8502097F82B301846C2
:1029EC003037BD4680BD000080B588B000AFF860C0
:1029FC00B9603B601346FB71FEF7ECFC0246BB6A08
:102A0C009B1A3A681344FB61FEF7E4FCB861394B3E
:102A1C001B685B011B0DFA6902FB03F37B6154E03D
:102A2C003B68B3F1FF3F50D0FEF7D4FC0246BB69C4
:102A3C00D31AFA699A4202D9FB69002B3DD1FB6883
:102A4C001B685A68FB681B6822F0E0025A60FB683E
:102A5C005B68B3F5827F11D1FB689B68B3F5004FBF
:102A6C0004D0FB689B68B3F5806F07D1FB681B68CB
:102A7C001A68FB681B6822F040021A60FB689B6AAC
:102A8C00B3F5005F0FD1FB681B681A68FB681B6805
:102A9C0022F400521A60FB681B681A68FB681B68FA
:102AAC0042F400521A60FB68012283F85120FB6843
:102ABC00002283F85020032317E07B69002B01D1FF
:102ACC000023FB617B69013B7B61FB681B689A6897
:102ADC00BB681340BA689A420CBF01230023DBB2D7
:102AEC001A46FB799A429BD1002318462037BD46E3
:102AFC0080BD00BF0400002080B586B002AFF86036
:102B0C00B9607A60FB685B68B3F5827F11D1FB68B2
:102B1C009B68B3F5004F04D0FB689B68B3F5806FDE
:102B2C0007D1FB681B681A68FB681B6822F040021F
:102B3C001A60FB685B68B3F5827F17D1FB689B68F2
:102B4C00B3F5806F12D17B680093BB680022012122
:102B5C00F868FFF749FF0346002B1AD0FB685B6D42
:102B6C0043F02002FB685A65032313E07B68009353
:102B7C00BB6800228021F868FFF736FF0346002B64
:102B8C0007D0FB685B6D43F02002FB685A6503239A
:102B9C0000E0002318461037BD4680BD80B586B0D6
:102BAC0002AFF860B9607A607B680093BB68002262
:102BBC008021F868FFF718FF0346002B07D0FB684D
:102BCC005B6D43F02002FB685A65032300E0002391
:102BDC0018461037BD4680BD70B500260C4D0D4C07
:102BEC00641BA410A64209D100F022F800260A4D5D
:102BFC000A4C641BA410A64205D170BD55F8043BC9
:102C0C0098470136EEE755F8043B98470136F2E752
:102C1C009C2C00089C2C00089C2C0008A02C000864
:102C2C0003460244934200D1704703F8011BF9E7B5
:102C3C00F8B500BFF8BC08BC9E467047F8B500BF9D
:082C4C00F8BC08BC9E4670476D
:102C540002020202020202020008DCABCDEF000015
:102C6400C0A8010FFFFFFF00C0A8010148656C6CFC
:102C74006F205573657200000203040506070809F6
:102C84000A0B0C0D0E0F10100000000000000000D5
:082C9400010203040607080910
:042C9C0031010008FA
:042CA0000D0100081A
:102CA40000C000000024F400010257353530300024
:102CB400000000000F0F00081B0F0008270F00087A
:102CC400330F00083F0F0008570F000800000000F2
:0C2CD400000000001000000001000000E3
:04000005080012E5F8
:00000001FF
